{
  "contractName": "SupplyChain",
  "abi": [
    {
      "inputs": [
        {
          "internalType": "address",
          "name": "initialOwner",
          "type": "address"
        }
      ],
      "stateMutability": "nonpayable",
      "type": "constructor"
    },
    {
      "inputs": [
        {
          "internalType": "address",
          "name": "owner",
          "type": "address"
        }
      ],
      "name": "OwnableInvalidOwner",
      "type": "error"
    },
    {
      "inputs": [
        {
          "internalType": "address",
          "name": "account",
          "type": "address"
        }
      ],
      "name": "OwnableUnauthorizedAccount",
      "type": "error"
    },
    {
      "anonymous": false,
      "inputs": [
        {
          "indexed": true,
          "internalType": "address",
          "name": "previousOwner",
          "type": "address"
        },
        {
          "indexed": true,
          "internalType": "address",
          "name": "newOwner",
          "type": "address"
        }
      ],
      "name": "OwnershipTransferred",
      "type": "event"
    },
    {
      "anonymous": false,
      "inputs": [
        {
          "indexed": false,
          "internalType": "uint256",
          "name": "id",
          "type": "uint256"
        },
        {
          "indexed": false,
          "internalType": "string",
          "name": "name",
          "type": "string"
        },
        {
          "indexed": false,
          "internalType": "string",
          "name": "manufacturer",
          "type": "string"
        },
        {
          "indexed": false,
          "internalType": "string",
          "name": "status",
          "type": "string"
        }
      ],
      "name": "ProductCreated",
      "type": "event"
    },
    {
      "anonymous": false,
      "inputs": [
        {
          "indexed": false,
          "internalType": "uint256",
          "name": "id",
          "type": "uint256"
        },
        {
          "indexed": false,
          "internalType": "string",
          "name": "newOwner",
          "type": "string"
        },
        {
          "indexed": false,
          "internalType": "string",
          "name": "status",
          "type": "string"
        }
      ],
      "name": "ProductTransferred",
      "type": "event"
    },
    {
      "inputs": [],
      "name": "owner",
      "outputs": [
        {
          "internalType": "address",
          "name": "",
          "type": "address"
        }
      ],
      "stateMutability": "view",
      "type": "function",
      "constant": true
    },
    {
      "inputs": [],
      "name": "productCount",
      "outputs": [
        {
          "internalType": "uint256",
          "name": "",
          "type": "uint256"
        }
      ],
      "stateMutability": "view",
      "type": "function",
      "constant": true
    },
    {
      "inputs": [
        {
          "internalType": "uint256",
          "name": "",
          "type": "uint256"
        }
      ],
      "name": "products",
      "outputs": [
        {
          "internalType": "uint256",
          "name": "id",
          "type": "uint256"
        },
        {
          "internalType": "string",
          "name": "name",
          "type": "string"
        },
        {
          "internalType": "string",
          "name": "manufacturer",
          "type": "string"
        },
        {
          "internalType": "string",
          "name": "currentOwner",
          "type": "string"
        },
        {
          "internalType": "string",
          "name": "status",
          "type": "string"
        }
      ],
      "stateMutability": "view",
      "type": "function",
      "constant": true
    },
    {
      "inputs": [],
      "name": "renounceOwnership",
      "outputs": [],
      "stateMutability": "nonpayable",
      "type": "function"
    },
    {
      "inputs": [
        {
          "internalType": "address",
          "name": "newOwner",
          "type": "address"
        }
      ],
      "name": "transferOwnership",
      "outputs": [],
      "stateMutability": "nonpayable",
      "type": "function"
    },
    {
      "inputs": [
        {
          "internalType": "string",
          "name": "_name",
          "type": "string"
        },
        {
          "internalType": "string",
          "name": "_manufacturer",
          "type": "string"
        }
      ],
      "name": "createProduct",
      "outputs": [],
      "stateMutability": "nonpayable",
      "type": "function"
    },
    {
      "inputs": [],
      "name": "getProductCount",
      "outputs": [
        {
          "internalType": "uint256",
          "name": "",
          "type": "uint256"
        }
      ],
      "stateMutability": "view",
      "type": "function",
      "constant": true
    },
    {
      "inputs": [
        {
          "internalType": "uint256",
          "name": "_id",
          "type": "uint256"
        },
        {
          "internalType": "string",
          "name": "_newOwner",
          "type": "string"
        },
        {
          "internalType": "string",
          "name": "_status",
          "type": "string"
        }
      ],
      "name": "transferProduct",
      "outputs": [],
      "stateMutability": "nonpayable",
      "type": "function"
    }
  ],
  "bytecode": "0x608060405234801562000010575f80fd5b506040516200129f3803806200129f8339818101604052810190620000369190620001e9565b805f73ffffffffffffffffffffffffffffffffffffffff168173ffffffffffffffffffffffffffffffffffffffff1603620000aa575f6040517f1e4fbdf7000000000000000000000000000000000000000000000000000000008152600401620000a191906200022a565b60405180910390fd5b620000bb81620000c360201b60201c565b505062000245565b5f805f9054906101000a900473ffffffffffffffffffffffffffffffffffffffff169050815f806101000a81548173ffffffffffffffffffffffffffffffffffffffff021916908373ffffffffffffffffffffffffffffffffffffffff1602179055508173ffffffffffffffffffffffffffffffffffffffff168173ffffffffffffffffffffffffffffffffffffffff167f8be0079c531659141344cd1fd0a4f28419497f9722a3daafe3b4186f6b6457e060405160405180910390a35050565b5f80fd5b5f73ffffffffffffffffffffffffffffffffffffffff82169050919050565b5f620001b38262000188565b9050919050565b620001c581620001a7565b8114620001d0575f80fd5b50565b5f81519050620001e381620001ba565b92915050565b5f6020828403121562000201576200020062000184565b5b5f6200021084828501620001d3565b91505092915050565b6200022481620001a7565b82525050565b5f6020820190506200023f5f83018462000219565b92915050565b61104c80620002535f395ff3fe608060405234801561000f575f80fd5b5060043610610086575f3560e01c80638da5cb5b116100595780638da5cb5b14610102578063b67f673614610120578063e0f6ef871461013c578063f2fde38b1461015a57610086565b80634a348da91461008a578063715018a6146100a85780637acc0b20146100b257806387592bce146100e6575b5f80fd5b610092610176565b60405161009f91906107a9565b60405180910390f35b6100b061017f565b005b6100cc60048036038101906100c791906107fd565b610192565b6040516100dd9594939291906108b2565b60405180910390f35b61010060048036038101906100fb9190610a4b565b6103dc565b005b61010a610510565b6040516101179190610b00565b60405180910390f35b61013a60048036038101906101359190610b19565b610537565b005b6101446105b8565b60405161015191906107a9565b60405180910390f35b610174600480360381019061016f9190610bcb565b6105be565b005b5f600254905090565b610187610642565b6101905f6106c9565b565b6001602052805f5260405f205f91509050805f0154908060010180546101b790610c23565b80601f01602080910402602001604051908101604052809291908181526020018280546101e390610c23565b801561022e5780601f106102055761010080835404028352916020019161022e565b820191905f5260205f20905b81548152906001019060200180831161021157829003601f168201915b50505050509080600201805461024390610c23565b80601f016020809104026020016040519081016040528092919081815260200182805461026f90610c23565b80156102ba5780601f10610291576101008083540402835291602001916102ba565b820191905f5260205f20905b81548152906001019060200180831161029d57829003601f168201915b5050505050908060030180546102cf90610c23565b80601f01602080910402602001604051908101604052809291908181526020018280546102fb90610c23565b80156103465780601f1061031d57610100808354040283529160200191610346565b820191905f5260205f20905b81548152906001019060200180831161032957829003601f168201915b50505050509080600401805461035b90610c23565b80601f016020809104026020016040519081016040528092919081815260200182805461038790610c23565b80156103d25780601f106103a9576101008083540402835291602001916103d2565b820191905f5260205f20905b8154815290600101906020018083116103b557829003601f168201915b5050505050905085565b6103e4610642565b60025f8154809291906103f690610c80565b91905055506040518060a0016040528060025481526020018381526020018281526020018281526020016040518060400160405280600c81526020017f4d616e756661637475726564000000000000000000000000000000000000000081525081525060015f60025481526020019081526020015f205f820151815f015560208201518160010190816104899190610e64565b50604082015181600201908161049f9190610e64565b5060608201518160030190816104b59190610e64565b5060808201518160040190816104cb9190610e64565b509050507f1550ffc404b3c1d24b9e8386fb637b66710fc7771635cf9b09d5ee2ae9296333600254838360405161050493929190610f7d565b60405180910390a15050565b5f805f9054906101000a900473ffffffffffffffffffffffffffffffffffffffff16905090565b61053f610642565b5f60015f8581526020019081526020015f209050828160030190816105649190610e64565b50818160040190816105769190610e64565b507fce05809a15244b8809bbff7a7421bdf9f1c93702acc876353b2fd770d7f2ad1c8484846040516105aa93929190610fd3565b60405180910390a150505050565b60025481565b6105c6610642565b5f73ffffffffffffffffffffffffffffffffffffffff168173ffffffffffffffffffffffffffffffffffffffff1603610636575f6040517f1e4fbdf700000000000000000000000000000000000000000000000000000000815260040161062d9190610b00565b60405180910390fd5b61063f816106c9565b50565b61064a61078a565b73ffffffffffffffffffffffffffffffffffffffff16610668610510565b73ffffffffffffffffffffffffffffffffffffffff16146106c75761068b61078a565b6040517f118cdaa70000000000000000000000000000000000000000000000000000000081526004016106be9190610b00565b60405180910390fd5b565b5f805f9054906101000a900473ffffffffffffffffffffffffffffffffffffffff169050815f806101000a81548173ffffffffffffffffffffffffffffffffffffffff021916908373ffffffffffffffffffffffffffffffffffffffff1602179055508173ffffffffffffffffffffffffffffffffffffffff168173ffffffffffffffffffffffffffffffffffffffff167f8be0079c531659141344cd1fd0a4f28419497f9722a3daafe3b4186f6b6457e060405160405180910390a35050565b5f33905090565b5f819050919050565b6107a381610791565b82525050565b5f6020820190506107bc5f83018461079a565b92915050565b5f604051905090565b5f80fd5b5f80fd5b6107dc81610791565b81146107e6575f80fd5b50565b5f813590506107f7816107d3565b92915050565b5f60208284031215610812576108116107cb565b5b5f61081f848285016107e9565b91505092915050565b5f81519050919050565b5f82825260208201905092915050565b5f5b8381101561085f578082015181840152602081019050610844565b5f8484015250505050565b5f601f19601f8301169050919050565b5f61088482610828565b61088e8185610832565b935061089e818560208601610842565b6108a78161086a565b840191505092915050565b5f60a0820190506108c55f83018861079a565b81810360208301526108d7818761087a565b905081810360408301526108eb818661087a565b905081810360608301526108ff818561087a565b90508181036080830152610913818461087a565b90509695505050505050565b5f80fd5b5f80fd5b7f4e487b71000000000000000000000000000000000000000000000000000000005f52604160045260245ffd5b61095d8261086a565b810181811067ffffffffffffffff8211171561097c5761097b610927565b5b80604052505050565b5f61098e6107c2565b905061099a8282610954565b919050565b5f67ffffffffffffffff8211156109b9576109b8610927565b5b6109c28261086a565b9050602081019050919050565b828183375f83830152505050565b5f6109ef6109ea8461099f565b610985565b905082815260208101848484011115610a0b57610a0a610923565b5b610a168482856109cf565b509392505050565b5f82601f830112610a3257610a3161091f565b5b8135610a428482602086016109dd565b91505092915050565b5f8060408385031215610a6157610a606107cb565b5b5f83013567ffffffffffffffff811115610a7e57610a7d6107cf565b5b610a8a85828601610a1e565b925050602083013567ffffffffffffffff811115610aab57610aaa6107cf565b5b610ab785828601610a1e565b9150509250929050565b5f73ffffffffffffffffffffffffffffffffffffffff82169050919050565b5f610aea82610ac1565b9050919050565b610afa81610ae0565b82525050565b5f602082019050610b135f830184610af1565b92915050565b5f805f60608486031215610b3057610b2f6107cb565b5b5f610b3d868287016107e9565b935050602084013567ffffffffffffffff811115610b5e57610b5d6107cf565b5b610b6a86828701610a1e565b925050604084013567ffffffffffffffff811115610b8b57610b8a6107cf565b5b610b9786828701610a1e565b9150509250925092565b610baa81610ae0565b8114610bb4575f80fd5b50565b5f81359050610bc581610ba1565b92915050565b5f60208284031215610be057610bdf6107cb565b5b5f610bed84828501610bb7565b91505092915050565b7f4e487b71000000000000000000000000000000000000000000000000000000005f52602260045260245ffd5b5f6002820490506001821680610c3a57607f821691505b602082108103610c4d57610c4c610bf6565b5b50919050565b7f4e487b71000000000000000000000000000000000000000000000000000000005f52601160045260245ffd5b5f610c8a82610791565b91507fffffffffffffffffffffffffffffffffffffffffffffffffffffffffffffffff8203610cbc57610cbb610c53565b5b600182019050919050565b5f819050815f5260205f209050919050565b5f6020601f8301049050919050565b5f82821b905092915050565b5f60088302610d237fffffffffffffffffffffffffffffffffffffffffffffffffffffffffffffffff82610ce8565b610d2d8683610ce8565b95508019841693508086168417925050509392505050565b5f819050919050565b5f610d68610d63610d5e84610791565b610d45565b610791565b9050919050565b5f819050919050565b610d8183610d4e565b610d95610d8d82610d6f565b848454610cf4565b825550505050565b5f90565b610da9610d9d565b610db4818484610d78565b505050565b5b81811015610dd757610dcc5f82610da1565b600181019050610dba565b5050565b601f821115610e1c57610ded81610cc7565b610df684610cd9565b81016020851015610e05578190505b610e19610e1185610cd9565b830182610db9565b50505b505050565b5f82821c905092915050565b5f610e3c5f1984600802610e21565b1980831691505092915050565b5f610e548383610e2d565b9150826002028217905092915050565b610e6d82610828565b67ffffffffffffffff811115610e8657610e85610927565b5b610e908254610c23565b610e9b828285610ddb565b5f60209050601f831160018114610ecc575f8415610eba578287015190505b610ec48582610e49565b865550610f2b565b601f198416610eda86610cc7565b5f5b82811015610f0157848901518255600182019150602085019450602081019050610edc565b86831015610f1e5784890151610f1a601f891682610e2d565b8355505b6001600288020188555050505b505050505050565b7f4d616e75666163747572656400000000000000000000000000000000000000005f82015250565b5f610f67600c83610832565b9150610f7282610f33565b602082019050919050565b5f608082019050610f905f83018661079a565b8181036020830152610fa2818561087a565b90508181036040830152610fb6818461087a565b90508181036060830152610fc981610f5b565b9050949350505050565b5f606082019050610fe65f83018661079a565b8181036020830152610ff8818561087a565b9050818103604083015261100c818461087a565b905094935050505056fea2646970667358221220b9a38fd290414d5f71575335fbe852b03093eff1fc01f21584db952fc00ea3db64736f6c63430008140033",
  "immutableReferences": {},
  "source": "// SPDX-License-Identifier: MIT\r\npragma solidity ^0.8.0;\r\n\r\nimport \"@openzeppelin/contracts/access/Ownable.sol\";\r\n\r\ncontract SupplyChain is Ownable {\r\n    struct Product {\r\n        uint256 id;\r\n        string name;\r\n        string manufacturer;\r\n        string currentOwner;\r\n        string status;\r\n    }\r\n\r\n    mapping(uint256 => Product) public products;\r\n    uint256 public productCount;\r\n\r\n    event ProductCreated(uint256 id, string name, string manufacturer, string status);\r\n    event ProductTransferred(uint256 id, string newOwner, string status);\r\n\r\n    constructor(address initialOwner) Ownable(initialOwner) {\r\n        // constructor body\r\n    }\r\n\r\n    function createProduct(string memory _name, string memory _manufacturer) public onlyOwner {\r\n        productCount++;\r\n        products[productCount] = Product(productCount, _name, _manufacturer, _manufacturer, \"Manufactured\");\r\n        emit ProductCreated(productCount, _name, _manufacturer, \"Manufactured\");\r\n    }\r\n\r\n     function getProductCount() public view returns (uint256) {\r\n        return productCount;\r\n    }\r\n\r\n\r\n\r\n    function transferProduct(uint256 _id, string memory _newOwner, string memory _status) public onlyOwner {\r\n        Product storage product = products[_id];\r\n        product.currentOwner = _newOwner;\r\n        product.status = _status;\r\n        emit ProductTransferred(_id, _newOwner, _status);\r\n    }\r\n}\r\n",
  "sourcePath": "E:\\Programming\\Decentralized-supply chain managment system\\backend\\contracts\\SupplyChain.sol",
  "compiler": {
    "name": "solc",
    "version": "0.8.20+commit.a1b79de6.Emscripten.clang"
  },
  "schemaVersion": "3.4.16",
  "updatedAt": "2024-07-02T20:49:42.310Z",
  "networkType": "ethereum",
  "devdoc": {
    "errors": {
      "OwnableInvalidOwner(address)": [
        {
          "details": "The owner is not a valid owner account. (eg. `address(0)`)"
        }
      ],
      "OwnableUnauthorizedAccount(address)": [
        {
          "details": "The caller account is not authorized to perform an operation."
        }
      ]
    },
    "kind": "dev",
    "methods": {
      "owner()": {
        "details": "Returns the address of the current owner."
      },
      "renounceOwnership()": {
        "details": "Leaves the contract without owner. It will not be possible to call `onlyOwner` functions. Can only be called by the current owner. NOTE: Renouncing ownership will leave the contract without an owner, thereby disabling any functionality that is only available to the owner."
      },
      "transferOwnership(address)": {
        "details": "Transfers ownership of the contract to a new account (`newOwner`). Can only be called by the current owner."
      }
    },
    "version": 1
  },
  "userdoc": {
    "kind": "user",
    "methods": {},
    "version": 1
  }
}